S01100005553436C65616E65722E73726563B1
S113000088C000001CC2000024C200002CC20000F2
S113001034C200003CC2000044C200004CC20000D4
S113002054C200005CC2000064C200006CC2000044
S113003074C200007CC2000084C200008CC20000B4
S1130040FCC2000004C300000CC3000032C3000063
S11300503AC3000042C300004AC3000052C3000078
S11300605AC3000062C300006AC3000072C30000E8
S11300707AC3000082C300008AC30000CDC300001D
S1130080D5C30000DDC30000E5C30000F500010195
S113009009010D011001FD001001F90005017006B0
S11300A0BF06F00602071B07B40611079306D20623
S11300B02B0762076E074B07570731073E077A077E
S11300C09207BA07E307F8071F08A6070C081F08DA
S11300D0CF07001F000000001F00001F10101010A9
S11300E01F00001F181818181F00001F1C1C1C1CC0
S11300F01F00001F1E1E1E1E1F00001F1F1F1F1F8C
S11301001F0003070F1F0F070300181C1E1F1E1CD0
S1130110180011241FBECFEFD0E1DEBFCDBF12E027
S1130120A0E0B1E0ECE2FBE100E00BBF02C007900D
S11301300D92A63AB107D9F723E0A6EAB2E001C0CE
S11301401D92A230B207E1F70E94F2080C94940DBC
S1130150D9D32FEF83EC99E0215080409040E1F710
S113016000C0000060E084E0EDD38AE191E0CDD3EB
S113017061E086E0E7D385E291E0C7D362E083E003
S1130180E1D38DE291E0C1D363E084E0DBD38BE380
S113019091E0BBD32FEF87EA91E621508040904055
S11301A0E1F700C00000AEC308950F931F93CF93EF
S11301B0DF93CDB7DEB764970FB6F894DEBF0FBEFA
S11301C0CDBF182F60E080E0BDD388E491E09DD3DB
S11301D060E088E0B7D3812F90E08930910500F585
S11301E0FC01EA5BFF4F0C94970A81E591E08DD303
S11301F017C08CE591E089D313C087E691E085D3DD
S11302000FC082E791E081D30BC08DE791E07DD3ED
S113021007C088E891E079D303C083E991E075D3FE
S113022061E080E08FD34091FE025091FF029A0179
S1130230A9E8B8E80E949D0A9695879592958295BB
S11302408F7089279F7089276CE3689F9001699F4D
S1130250300D1124CA01821B930B9F938F939A0133
S11302600E949D0A96958795929582958F7089270D
S11302709F7089279F938F938EE991E09F938F932B
S11302808E010F5F1F4F1F930F930E94AC0AC8018A
S11302903CD30FB6F894DEBF0FBECDBF20910E0144
S11302A030910F01809112019091130128173907A1
S11302B0E0F162E080E046D34091FB025091FC0201
S11302C09A01A9E8B8E80E949D0A969587959295A7
S11302D082958F7089279F7089276CE3689F9001AE
S11302E0699F300D1124CA01821B930B9F938F9336
S11302F09A010E949D0A96958795929582958F7092
S113030089279F7089279F938F9380EB91E09F9318
S11303108F931F930F930E94AC0AC801F6D20FB6B5
S1130320F894DEBF0FBECDBF0FC062E080E00AD3F9
S113033083E1E4ECF1E0DE01119601900D928A95DF
S1130340E1F7CE010196E1D263E080E0FBD2809137
S11303500C011F928F9380910D011F928F9387ED53
S113036091E09F938F938E010F5F1F4F1F930F9305
S11303700E94AC0AC801C9D20FB6F894DEBF0FBE02
S1130380CDBF64960FB6F894DEBF0FBECDBFDF912C
S1130390CF911F910F910895282F30E0A8EEB3E07C
S11303A00E949D0A9B01AC0160E074E284EF90E03E
S11303B00E94750A222374F0223070F0243070F009
S11303C0283070F0203170F0203270F0203470F456
S11303D086E0089587E0089581E0089582E0089515
S11303E083E0089584E0089585E0089587E0089502
S11303F0CF93DF93C62F96B1892B86B9D6B1842FBC
S1130400CBDF8D2B86B9C7B9DF91CF91089597B112
S11304108770987F982B97B9369A3699FECF84B116
S113042025B190E0922B089580E090E0FC01E05526
S1130430FD4F1082019682339105C1F708951F92F2
S11304400F920FB60F9211240F900FBE0F901F90B2
S113045018951F920F920FB60F9211240F900FBE92
S11304600F901F9018951F920F920FB60F921124A0
S11304700F900FBE0F901F9018951F920F920FB6FA
S11304800F9211240F900FBE0F901F9018951F927A
S11304900F920FB60F9211240F900FBE0F901F9062
S11304A018951F920F920FB60F9211240F900FBE42
S11304B00F901F9018951F920F920FB60F92112450
S11304C00F900FBE0F901F9018951F920F920FB6AA
S11304D00F9211240F900FBE0F901F9018951F922A
S11304E00F920FB60F9211240F900FBE0F901F9012
S11304F018951F920F920FB60F9211240F900FBEF2
S11305000F901F9018951F920F920FB60F921124FF
S11305100F900FBE0F901F9018951F920F920FB659
S11305200F9211240F900FBE0F901F9018951F92D9
S11305300F920FB60F9211240F900FBE0F901F90C1
S113054018951F920F920FB60F9211240F900FBEA1
S11305500F901F9018951F920F920FB60F921124AF
S11305602F933F935F936F937F938F939F93AF9357
S1130570BF932091A6023091A7022F5F3F4F309383
S1130580A7022093A6026091080170910901C90194
S113059098D7892B29F48091AE028F5F8093AE02A5
S11305A06091060170910701C9018BD7892B29F449
S11305B08091AD028F5F8093AD02609104017091D0
S11305C00501C9017ED7892B29F48091AC028F5F84
S11305D08093AC026091020170910301C90171D74B
S11305E0892B29F48091AB028F5F8093AB026091D9
S11305F0000170910101C90164D7892B29F480910C
S1130600AA028F5F8093AA0280910A0190910B0144
S11306108217930720F41092A7021092A602BF91AA
S1130620AF919F918F917F916F915F913F912F91A6
S11306300F900FBE0F901F9018951F920F920FB638
S11306400F9211240F900FBE0F901F9018951F92B8
S11306500F920FB60F9211240F900FBE0F901F90A0
S113066018951F920F920FB60F9211240BB60F928A
S11306702F933F934F935F936F937F938F939F93A6
S1130680AF93BF93EF93FF932BD2EAD1FF91EF91F6
S1130690BF91AF919F918F917F916F915F914F9196
S11306A03F912F910F900BBE0F900FBE0F901F9094
S11306B018951F920F920FB60F9211240F900FBE30
S11306C00F901F9018951F920F920FB60F9211243E
S11306D00F900FBE0F901F9018951F920F920FB698
S11306E00F9211240F900FBE0F901F9018951F9218
S11306F00F920FB60F9211240F900FBE0F901F9000
S113070018951F920F920FB60F9211240F900FBEDF
S11307100F901F9018951F920F920FB60F921124ED
S11307200F900FBE0F901F9018951F920F920FB647
S11307300F9211240F900FBE0F901F9018951F92C7
S11307400F920FB60F9211240F900FBE0F901F90AF
S113075018951F920F920FB60F9211240F900FBE8F
S11307600F901F9018951F920F920FB60F9211249D
S11307700F900FBE0F901F9018951F920F920FB6F7
S11307800F9211240F900FBE0F901F9018951F9277
S11307900F920FB60F9211240BB60F922F933F9323
S11307A04F935F936F937F938F939F93AF93BF9375
S11307B0CF93EF93FF9388D1C82F8ED1CC3731F4E8
S11307C01092E20281E08093AF0212C0E091E20253
S11307D0F0E0E055FD4FC0838091E2028F5F80938B
S11307E0E2028091E202843318F01092E2021CDEED
S11307F0FF91EF91CF91BF91AF919F918F917F9195
S11308006F915F914F913F912F910F900BBE0F907D
S11308100FBE0F901F9018951F920F920FB60F9254
S113082011240F900FBE0F901F9018951F920F92D6
S11308300FB60F9211240F900FBE0F901F901895B2
S11308401F920F920FB60F9211240F900FBE0F90AC
S11308501F9018951F920F920FB60F9211240F90AC
S11308600FBE0F901F901895982F907F95BBA89A54
S1130870AA9AEFE8F1E03197F1F700C00000AA98D6
S1130880A898EFE8F1E03197F1F700C00000F0E13B
S11308908F9FC001112485BBA89AAA9A8FE891E082
S11308A00197F1F700C00000AA98A898EFE8F1E0DA
S11308B03197F1F700C000000895982F907F95BB01
S11308C0AA9AEFE8F1E03197F1F700C00000AA9886
S11308D0EFE8F1E03197F1F700C00000F0E18F9FFD
S11308E0C001112485BBAA9A8FE891E00197F1F722
S11308F000C00000AA98EFE8F1E03197F1F700C0DA
S11309000000089581E0D9CF08950F931F93CF93EA
S1130910DF93FC0101900020E9F731971E2F181B8B
S1130920009759F0112349F0082FC02FD92F89912E
S11309309BDF8C2F801B8117D0F3DF91CF911F9108
S11309400F910895623031F0633031F0613029F451
S1130950805C03C08C5E01C08C5A8068AECF089561
S1130960EF92FF920F931F93CF93DF938C01660F47
S1130970660F660F6064E62EC0E0D0E0F801EC0F6D
S1130980FD1FF4908C2F8E0D98DF8F2D6DDF219637
S1130990C830D10599F7DF91CF911F910F91FF9046
S11309A0EF9008951F93CF93DF938FE697E101971C
S11309B0F1F700C0000015BA15BA84B3806F84BB88
S11309C084B3876084BB80E385BBAA9A8FE891E0F7
S11309D00197F1F700C00000AA988FE891E0019711
S11309E0F1F700C0000080E385BBAA9A8FE891E08C
S11309F00197F1F700C00000AA988FE891E00197F1
S1130A00F1F700C0000080E285BBAA9A8FE891E06C
S1130A100197F1F700C00000AA988FE891E00197D0
S1130A20F1F700C0000088E248DF8CE046DFC2ED49
S1130A30D0E060E011E0160FCE0192DF2896183066
S1130A4011F0612FF7CFDF91CF911F91089590930B
S1130A5098008093990040939A0060939D000895B4
S1130A60EBE9F0E0908195FFFDCF80939C00089521
S1130A70EF92FF920F931F93CF93DF93FC01DC015E
S1130A800D900020E9F711977D01E81AF90A1E1468
S1130A901F049CF48081882381F08F010F5F1F4F16
S1130AA0C0E0D0E005C0F80181918F01882329F0CE
S1130AB0D7DF2196EC16FD06B1F7DF91CF911F9198
S1130AC00F91FF90EF900895EBE9F0E08081882387
S1130AD0ECF780919C0008955D9BFECF8CB908953E
S1130AE05F9BFECF8CB1089584EB90E09093190145
S1130AF08093180124E130E030931701209316010C
S1130B0090931501809314018AE090E0909313016F
S1130B108093120180ED97E09093F1028093F002AC
S1130B2088EC90E09093010380930003089581E0A2
S1130B308093E30284EB90E09093E5028093E402D7
S1130B4024E130E03093E7022093E6029093E90237
S1130B508093E8028AE090E09093EB028093EA02AB
S1130B6080ED97E09093ED028093EC0288EC90E0A6
S1130B709093EF028093EE024DE050E060E070E06D
S1130B8083EE92E015C708954DE050E060E070E018
S1130B9083EE92E0FDD68091E3028F3F19F4C7DF24
S1130BA0A3CF08958091E4029091E50290931901F6
S1130BB0809318018091E6029091E70290931701C7
S1130BC0809316018091E8029091E90290931501B7
S1130BD0809314018091EA029091EB0290931301A7
S1130BE0809312018091EC029091ED029093F102B6
S1130BF08093F0028091EE029091EF0290930103B2
S1130C0080930003089581E08093E30280911801AA
S1130C10909119019093E5028093E402809116016A
S1130C20909117019093E7028093E602809114015A
S1130C30909115019093E9028093E802809112014A
S1130C40909113019093EB028093EA028091F00259
S1130C509091F1029093ED028093EC028091000355
S1130C60909101039093EF028093EE024DE050E0E7
S1130C7060E070E083EE92E09BC6089582EA8FBD47
S1130C8089E18EBD80E09AE097BD86BD80E287BB96
S1130C901BBC1ABC0895853688F440E05AE0849F52
S1130CA09001859F300D112436952795369527950B
S1130CB0ABE7B4E142D49695879502C080E09AE010
S1130CC09BBD8ABD0895CF93C82F4091F80250E090
S1130CD04930510508F0AFC0FA01E15BFF4F27C46A
S1130CE08BEE91E0C5DE80911001909111019093FB
S1130CF0FF028093FE0280910E0190910F01909368
S1130D00FC028093FB028091FA02811108C0809159
S1130D10F502811192C087E08093F8028EC083E0CF
S1130D208093F8028AC08FEF91E0A2DE2091100137
S1130D30309111013093FF022093FE0220910E01A5
S1130D4030910F013093FC022093FB028091F50255
S1130D50882319F01092F80270C0C13009F06DC0F8
S1130D6085E08093F80269C084E192E081DE80919D
S1130D70F202811162C081E08093F8025EC08BE2CE
S1130D8092E076DE8091FE029091FF0201979093AB
S1130D90FF028093FE02892B09F04FC088E0809304
S1130DA0F8024BC082E492E063DE8091F90288236A
S1130DB009F443C080910E0190910F01209112011A
S1130DC0309113018217930718F41092F80235C07A
S1130DD09093FC028093FB0282E08093F8022DC082
S1130DE08BE592E045DE8091FB029091FC02019735
S1130DF09093FC028093FB02892BF9F486E08093A4
S1130E00F8021BC081E792E033DE81E08093F402B4
S1130E108091FA02882389F01092F8021092F40269
S1130E200CC086E892E024DE8091F502882329F044
S1130E301092F80202C01092F802CF9108954091E6
S1130E40F30250E0FA013197E830F10508F05BC095
S1130E50E85AFF4F6CC3863009F058C08093F30200
S1130E600895823021F487E08093F302089583305B
S1130E7009F04CC088E08093F3020895823021F495
S1130E8084E08093F3020895833009F03FC088E042
S1130E908093F3020895823021F485E08093F30275
S1130EA00895833099F588E08093F30208958230A1
S1130EB019F48093F3020895833041F588E0809318
S1130EC0F3020895823021F485E08093F3020895BB
S1130ED08330E1F488E08093F3020895823021F4B2
S1130EE088E08093F3020895833081F488E080934E
S1130EF0F30208958091FD028F5F8093FD0281E0EB
S1130F008093F302089581E08093F3020895809121
S1130F10F80290E08930910508F091C0FC01E05A94
S1130F20FF4F05C380E0B7DEE2E6F0E080818E7F0C
S1130F30808380818D7F808380818B7F808380818B
S1130F408860808380818F7E8083089580E0A3DE23
S1130F50E2E6F0E080818E7F8083808182608083FE
S1130F6080818B7F80838081877F808380818F7E57
S1130F708083089580910D018EDEE2E6F0E08081A9
S1130F808160808380818D7F808380818B7F80835B
S1130F908081877F8083808180618083089580E061
S1130FA07ADEE2E6F0E080818E7F808380818D7F2F
S1130FB0808380818B7F808380818860808380812F
S1130FC08F7E8083089580910D0165DEE2E6F0E076
S1130FD080818160808380818D7F80838081846033
S1130FE080838081877F808380818F7E8083089542
S1130FF080E051DEE2E6F0E08081816080838081E0
S11310008D7F8083808184608083808188608083F9
S113101080818F7E8083089580E03DDEE2E6F0E00B
S113102080818160808380818D7F808380818460E2
S113103080838081877F808380818F7E80830895F1
S113104083B7856083BF83B7886083BF8DE781BF23
S113105087B7826087BF08958FEF82B910926200CC
S113106080EF8ABB8FE08BBB80ED87BB8FE188BBB1
S1131070089586B38095817108958F718330A9F0A6
S113108028F4813051F08230A1F011C0883049F049
S1131090803149F0843059F402C081E0089582E03F
S11310A0089584E0089585E0089586E0089580E039
S11310B0089583E00895982F8091A902882369F008
S11310C02091A80292131BC08330D8F48F5F8093C1
S11310D0A9028330C1F0811107C09093A80281E076
S11310E08093A90280E001C080E02091A8029217B9
S11310F061F09093A80291E09093A902089580E092
S1131100F4CF80E0F2CF892FF0CF089589B38170B6
S11311108093F50289B382708093F20289B384705C
S11311208093FA0289B388708093F90281E090E099
S11311300895CF92DF92EF92FF92CF93DF9380E0F6
S113114066D99093110180931001609118017091F8
S11311501901C0911001D091110180E090E0C0D03C
S11311606B017C01BE0180E090E0BAD020E030E069
S113117040E85AE31BD19B01AC01C701B60116D16B
S113118083D0709311016093100181E040D9909352
S11311900F0180930E016091140170911501C091AB
S11311A00E01D0910F0180E090E09AD06B017C0198
S11311B0BE0180E090E094D020E030E040E85AE3C3
S11311C0F5D09B01AC01C701B601F0D05DD070939E
S11311D00F0160930E01DF91CF91FF90EF90DF90AC
S11311E0CF90089548E966E080E190E030DC34DF98
S11311F027DF44DD80E04FDD48EC60E480E8F8D888
S1131200D1DB80DB0E94A800BFDC78948EE992E0F9
S11312102FDCC0E09091AD02992319F08ADF10927F
S1131220AD029091AE02992349F070DF22DF25DFF1
S113123042DF8111C82F03DE1092AE029091AC02FE
S1131240992329F08C2F3FDD1092AC02C0E09091DD
S1131250AA02992329F08091F80259DE1092AA0279
S11312609091AB02992331F08091F8020E94D5004D
S11312701092AB029091F4029091FD02992351F2E5
S1131280C2DC1092FD02C6CF70D088F09F5790F058
S1131290B92F9927B751A0F0D1F0660F771F881F97
S11312A0991F1AF0BA95C9F712C0B13081F077D0FE
S11312B0B1E0089574C0672F782F8827B85F39F09C
S11312C0B93FCCF3869577956795B395D9F73EF4F6
S11312D090958095709561957F4F8F4F9F4F08959E
S11312E0E89409C097FB3EF49095809570956195BC
S11312F07F4F8F4F9F4F9923A9F0F92F96E9BB2772
S11313009395F695879577956795B795F111F8CFED
S1131310FAF4BB0F11F460FF1BC06F5F7F4F8F4F58
S11313209F4F16C0882311F096E911C0772321F04E
S11313309EE8872F762F05C0662371F096E8862FE6
S113134070E060E02AF09A95660F771F881FDAF73D
S1131350880F9695879597F9089557FD9058440FEF
S1131360551F59F05F3F71F04795880F97FB991F00
S113137061F09F3F79F087950895121613061406BD
S1131380551FF2CF4695F1DF08C01616170618064A
S1131390991FF1CF86957105610508940895E89425
S11313A0BB2766277727CB0197F908950BD078C020
S11313B069D028F06ED018F0952309F05AC05FC0A8
S11313C01124EECFCADFA0F3959FD1F3950F50E01F
S11313D0551F629FF001729FBB27F00DB11D639FE3
S11313E0AA27F00DB11DAA1F649F6627B00DA11D89
S11313F0661F829F2227B00DA11D621F739FB00D2F
S1131400A11D621F839FA00D611D221F749F33279E
S1131410A00D611D231F849F600D211D822F762F37
S11314206A2F11249F5750408AF0E1F088234AF034
S1131430EE0FFF1FBB1F661F771F881F9150504080
S1131440A9F79E3F510570F014C0AACF5F3FECF39B
S1131450983EDCF3869577956795B795F795E7956C
S11314609F5FC1F7FE2B880F911D9695879597F97D
S1131470089597F99F6780E870E060E008959FEF12
S113148080EC089500240A94161617061806090617
S1131490089500240A9412161306140605060895E6
S11314A0092E0394000C11F4882352F0BB0F40F46E
S11314B0BF2B11F460FF04C06F5F7F4F8F4F9F4FAE
S11314C00895AA1BBB1B51E107C0AA1FBB1FA61787
S11314D0B70710F0A61BB70B881F991F5A95A9F7D9
S11314E080959095BC01CD010895A1E21A2EAA1B06
S11314F0BB1BFD010DC0AA1FBB1FEE1FFF1FA217C0
S1131500B307E407F50720F0A21BB30BE40BF50BBC
S1131510661F771F881F991F1A9469F76095709545
S1131520809590959B01AC01BD01CF010895EE0F0C
S1131530FF1F0590F491E02D0994A29FB001B39F81
S1131540C001A39F700D811D1124911DB29F700DC8
S1131550811D1124911D08950F931F93CF93DF9341
S1131560CDB7DEB72E970FB6F894DEBF0FBECDBF52
S11315700D891E8986E08C831A8309838FEF9FE788
S11315809E838D83AE01475E5F4F6F89788DCE0158
S1131590019610D0EF81F885E00FF11F10822E968E
S11315A00FB6F894DEBF0FBECDBFDF91CF911F9170
S11315B00F9108952F923F924F925F926F927F9274
S11315C08F929F92AF92BF92CF92DF92EF92FF924F
S11315D00F931F93CF93DF93CDB7DEB72C970FB63E
S11315E0F894DEBF0FBECDBF7C016B018A01FC0104
S11315F017821682838181FFB0C1CE0101964C010E
S1131600F7019381F60193FD859193FF81916F0119
S1131610882309F49EC1853239F493FD859193FFA3
S113162081916F01853221F4B70190E0EDD1E8CFCB
S1131630512C312C20E02032A0F48B3269F030F4AC
S1131640803259F0833269F420612CC08D3239F034
S1131650803339F4216026C02260246023C02860CE
S113166021C027FD27C030ED380F3A3078F426FF2B
S113167006C0FAE05F9E300D1124532E13C08AE099
S1131680389E300D1124332E20620CC08E3221F48A
S113169026FD5FC1206406C08C3611F4206802C0A8
S11316A0883641F4F60193FD859193FF81916F0192
S11316B08111C1CF982F9F7D9554933028F40C5FEE
S11316C01F4FFFE3F9830DC0833631F0833771F088
S11316D0833509F057C021C0F801808189830E5FEA
S11316E01F4F44244394512C540114C03801F2E098
S11316F06F0E711CF801A080B18026FF03C0652D18
S113170070E002C06FEF7FEFC5012C8772D12C010E
S113171083012C852F77222E16C03801F2E06F0E3C
S1131720711CF801A080B18026FF03C0652D70E014
S113173002C06FEF7FEFC5012C8750D12C012C859F
S11317402068222E830123FC19C0832D90E04816C3
S11317505906A0F4B70180E290E056D13A94F5CF4F
S1131760F50127FC859127FE81915F01B70190E087
S11317704BD131103A94F1E04F1A510841145104FD
S113178079F7DEC0843611F0893631F5F80127FF88
S113179007C060817181828193810C5F1F4F08C0F3
S11317A060817181882777FD8095982F0E5F1F4F88
S11317B02F76B22E97FF09C090958095709561950C
S11317C07F4F8F4F9F4F2068B22E2AE030E0A40154
S11317D04DD1A82EA81843C0853729F42F7EB22EE8
S11317E02AE030E025C0F22FF97FBF2E8F36C1F0FA
S11317F018F4883579F0ADC0803719F0883721F0B6
S1131800A8C02F2F2061B22EB4FE0DC08B2D846092
S1131810B82E09C024FF0AC09F2F9660B92E06C0B7
S113182028E030E005C020E130E002C020E132E0F1
S1131830F801B7FE07C060817181828193810C5FDA
S11318401F4F06C06081718180E090E00E5F1F4FE2
S1131850A4010CD1A82EA818FB2DFF77BF2EB6FE2D
S11318600BC02B2D2E7FA51450F4B4FE0AC0B2FC7D
S113187008C02B2D2E7E05C07A2C2B2D03C07A2C6C
S113188001C0752C24FF0DC0FE01EA0DF11D8081FD
S1131890803311F4297E09C022FF06C07394739427
S11318A004C0822F867809F0739423FD12C020FFB0
S11318B006C05A2C731418F4530C5718732C731451
S11318C060F4B70180E290E02C879ED073942C855D
S11318D0F6CF731410F4371801C0312C24FF11C053
S11318E0B70180E390E02C878FD02C8522FF16C0AF
S11318F021FF03C088E590E002C088E790E0B701CB
S11319000CC0822F867851F021FD02C080E201C014
S11319108BE227FD8DE2B70190E076D0A51430F478
S1131920B70180E390E070D05A94F8CFAA94F40100
S1131930EA0DF11D8081B70190E066D0A110F6CFC9
S1131940332009F45DCEB70180E290E05DD03A9493
S1131950F7CFF7018681978102C08FEF9FEF2C9616
S11319600FB6F894DEBF0FBECDBFDF91CF911F91AC
S11319700F91FF90EF90DF90CF90BF90AF909F902A
S11319808F907F906F905F904F903F902F9008952D
S1131990DC01CB01FC01E199FECF06C0FFBBEEBB2D
S11319A0E09A31960DB20D9241505040B8F7089527
S11319B0DC01CB0102C02D9105D041505040D8F735
S11319C00895262FE199FECF9FBB8EBB2DBB0FB68A
S11319D0F894E29AE19A0FBE01960895FC010590ED
S11319E0615070400110D8F7809590958E0F9F1F1D
S11319F00895FC016150704001900110D8F7809562
S1131A0090958E0F9F1F08950F931F93CF93DF938D
S1131A10182F092FEB018B8181FD03C08FEF9FEFFE
S1131A2020C082FF10C04E815F812C813D8142170E
S1131A3053077CF4E881F9819F012F5F3F4F39837D
S1131A402883108306C0E885F985812F0995892BA1
S1131A5029F72E813F812F5F3F4F3F832E83812FB4
S1131A60902FDF91CF911F910F910895FA01AA272A
S1131A70283051F1203181F1E8946F936E7F6E5FCD
S1131A807F4F8F4F9F4FAF4FB1E03ED0B4E03CD07B
S1131A90670F781F891F9A1FA11D680F791F8A1F5E
S1131AA0911DA11D6A0F711D811D911DA11D20D0C5
S1131AB009F468943F912AE0269F11243019305D7F
S1131AC03193DEF6CF010895462F4770405D419370
S1131AD0B3E00FD0C9F7F6CF462F4F70405D4A33BD
S1131AE018F0495D31FD4052419302D0A9F7EACF85
S1131AF0B4E0A6959795879577956795BA95C9F7B4
S1131B0000976105710508959B01AC010A2E0694A6
S1131B105795479537952795BA95C9F7620F731F5F
S10F1B20841F951FA01D0895F894FFCFAA
S1131B2C6400F401E803DC056400881314329600A5
S1131B3C96000A0096001400C800556C7472617308
S1131B4C6F756E6400436C65616E65720048534F2B
S1131B5C20262056616C656E746500566572736937
S1131B6C6F6E3A20312E30005354415455533A2061
S1131B7C0049444C4520202020202000524541445B
S1131B8C5920202020200046494C4C494E47202007
S1131B9C200057415348494E4720202000445241CD
S1131BAC494E494E47202000445259494E47202063
S1131BBC202000454D5054592020202020005761EE
S1131BCC73682054696D653A202532643A256400A3
S1131BDC4472792054696D653A202532643A25643F
S1131BEC202020004472792054696D653A204449C0
S1131BFC5341424C45440053706565643A20253288
S1131C0C64252520543A202532640053544154450C
S1131C1C3A2053544154455F49444C450A0D0053F2
S1131C2C544154453A2053544154455F5245414420
S1131C3C590A0D0053544154453A205354415445C8
S1131C4C5F46494C4C494E470A0D00535441544588
S1131C5C3A2053544154455F57415348494E470A1F
S1131C6C0D0053544154453A2053544154455F5547
S1131C7C4E46494C4C494E470A0D00535441544569
S1131C8C3A2053544154455F445259494E470A0D26
S1131C9C0053544154453A2053544154455F454DE7
S1131CAC5054590A0D0053544154453A205354414D
S1131CBC54455F46494E49534845440A0D0048452E
S1091CCC4C4C4F0A0D0010
S9030000FC
